{"abi":[{"type":"constructor","inputs":[{"name":"_usdc","type":"address","internalType":"address"},{"name":"_rwaAdapter","type":"address","internalType":"address"},{"name":"_initialOwner","type":"address","internalType":"address"}],"stateMutability":"nonpayable"},{"type":"function","name":"MAX_ENTRY_FEE","inputs":[],"outputs":[{"name":"","type":"uint256","internalType":"uint256"}],"stateMutability":"view"},{"type":"function","name":"MAX_PLAYERS_CAP","inputs":[],"outputs":[{"name":"","type":"uint32","internalType":"uint32"}],"stateMutability":"view"},{"type":"function","name":"MAX_ROUND_DURATION","inputs":[],"outputs":[{"name":"","type":"uint32","internalType":"uint32"}],"stateMutability":"view"},{"type":"function","name":"MIN_CREATOR_STAKE","inputs":[],"outputs":[{"name":"","type":"uint256","internalType":"uint256"}],"stateMutability":"view"},{"type":"function","name":"MIN_ENTRY_FEE","inputs":[],"outputs":[{"name":"","type":"uint256","internalType":"uint256"}],"stateMutability":"view"},{"type":"function","name":"MIN_PLAYERS_MIN","inputs":[],"outputs":[{"name":"","type":"uint32","internalType":"uint32"}],"stateMutability":"view"},{"type":"function","name":"MIN_ROUND_DURATION","inputs":[],"outputs":[{"name":"","type":"uint32","internalType":"uint32"}],"stateMutability":"view"},{"type":"function","name":"acceptOwnership","inputs":[],"outputs":[],"stateMutability":"nonpayable"},{"type":"function","name":"cancelPool","inputs":[{"name":"poolId","type":"uint256","internalType":"uint256"}],"outputs":[],"stateMutability":"nonpayable"},{"type":"function","name":"claimRefund","inputs":[{"name":"poolId","type":"uint256","internalType":"uint256"}],"outputs":[],"stateMutability":"nonpayable"},{"type":"function","name":"claimWinnings","inputs":[{"name":"poolId","type":"uint256","internalType":"uint256"}],"outputs":[],"stateMutability":"nonpayable"},{"type":"function","name":"commit","inputs":[{"name":"poolId","type":"uint256","internalType":"uint256"},{"name":"round","type":"uint32","internalType":"uint32"},{"name":"hash","type":"bytes32","internalType":"bytes32"}],"outputs":[],"stateMutability":"nonpayable"},{"type":"function","name":"createPool","inputs":[{"name":"entryFee","type":"uint256","internalType":"uint256"},{"name":"maxPlayers","type":"uint32","internalType":"uint32"},{"name":"minPlayers","type":"uint32","internalType":"uint32"},{"name":"roundDuration","type":"uint32","internalType":"uint32"},{"name":"startDeadline","type":"uint32","internalType":"uint32"}],"outputs":[{"name":"poolId","type":"uint256","internalType":"uint256"}],"stateMutability":"nonpayable"},{"type":"function","name":"creatorActivePools","inputs":[{"name":"creator","type":"address","internalType":"address"}],"outputs":[{"name":"","type":"uint256","internalType":"uint256"}],"stateMutability":"view"},{"type":"function","name":"creatorStake","inputs":[{"name":"","type":"address","internalType":"address"}],"outputs":[{"name":"","type":"uint256","internalType":"uint256"}],"stateMutability":"view"},{"type":"function","name":"depositCreatorStake","inputs":[{"name":"amount","type":"uint256","internalType":"uint256"}],"outputs":[],"stateMutability":"nonpayable"},{"type":"function","name":"getCommitment","inputs":[{"name":"poolId","type":"uint256","internalType":"uint256"},{"name":"round","type":"uint32","internalType":"uint32"}],"outputs":[{"name":"commitHash","type":"bytes32","internalType":"bytes32"},{"name":"blockNumber","type":"uint256","internalType":"uint256"},{"name":"revealed","type":"bool","internalType":"bool"}],"stateMutability":"view"},{"type":"function","name":"getPlayerInfo","inputs":[{"name":"poolId","type":"uint256","internalType":"uint256"},{"name":"player","type":"address","internalType":"address"}],"outputs":[{"name":"","type":"tuple","internalType":"struct IArenaManager.PlayerInfo","components":[{"name":"isActive","type":"bool","internalType":"bool"},{"name":"hasClaimed","type":"bool","internalType":"bool"},{"name":"roundEliminated","type":"uint32","internalType":"uint32"},{"name":"lastChoice","type":"uint8","internalType":"enum IArenaManager.Choice"}]}],"stateMutability":"view"},{"type":"function","name":"getPlayers","inputs":[{"name":"poolId","type":"uint256","internalType":"uint256"}],"outputs":[{"name":"","type":"address[]","internalType":"address[]"}],"stateMutability":"view"},{"type":"function","name":"getPoolConfig","inputs":[{"name":"poolId","type":"uint256","internalType":"uint256"}],"outputs":[{"name":"","type":"tuple","internalType":"struct IArenaManager.PoolConfig","components":[{"name":"host","type":"address","internalType":"address"},{"name":"entryFee","type":"uint256","internalType":"uint256"},{"name":"maxPlayers","type":"uint32","internalType":"uint32"},{"name":"minPlayers","type":"uint32","internalType":"uint32"},{"name":"roundDuration","type":"uint32","internalType":"uint32"},{"name":"startDeadline","type":"uint32","internalType":"uint32"}]}],"stateMutability":"view"},{"type":"function","name":"getPoolState","inputs":[{"name":"poolId","type":"uint256","internalType":"uint256"}],"outputs":[{"name":"","type":"tuple","internalType":"struct IArenaManager.PoolState","components":[{"name":"status","type":"uint8","internalType":"enum IArenaManager.PoolStatus"},{"name":"currentRound","type":"uint32","internalType":"uint32"},{"name":"survivorCount","type":"uint32","internalType":"uint32"},{"name":"playerCount","type":"uint32","internalType":"uint32"},{"name":"totalDeposited","type":"uint256","internalType":"uint256"},{"name":"roundDeadline","type":"uint256","internalType":"uint256"},{"name":"winner","type":"address","internalType":"address"}]}],"stateMutability":"view"},{"type":"function","name":"isCommitted","inputs":[{"name":"poolId","type":"uint256","internalType":"uint256"},{"name":"round","type":"uint32","internalType":"uint32"}],"outputs":[{"name":"","type":"bool","internalType":"bool"}],"stateMutability":"view"},{"type":"function","name":"isResolver","inputs":[{"name":"","type":"address","internalType":"address"}],"outputs":[{"name":"","type":"bool","internalType":"bool"}],"stateMutability":"view"},{"type":"function","name":"joinPool","inputs":[{"name":"poolId","type":"uint256","internalType":"uint256"}],"outputs":[],"stateMutability":"nonpayable"},{"type":"function","name":"owner","inputs":[],"outputs":[{"name":"","type":"address","internalType":"address"}],"stateMutability":"view"},{"type":"function","name":"pendingOwner","inputs":[],"outputs":[{"name":"","type":"address","internalType":"address"}],"stateMutability":"view"},{"type":"function","name":"pendingPayout","inputs":[{"name":"poolId","type":"uint256","internalType":"uint256"}],"outputs":[{"name":"","type":"uint256","internalType":"uint256"}],"stateMutability":"view"},{"type":"function","name":"poolCount","inputs":[],"outputs":[{"name":"","type":"uint256","internalType":"uint256"}],"stateMutability":"view"},{"type":"function","name":"renounceOwnership","inputs":[],"outputs":[],"stateMutability":"nonpayable"},{"type":"function","name":"resolveRound","inputs":[{"name":"poolId","type":"uint256","internalType":"uint256"}],"outputs":[],"stateMutability":"nonpayable"},{"type":"function","name":"reveal","inputs":[{"name":"poolId","type":"uint256","internalType":"uint256"},{"name":"round","type":"uint32","internalType":"uint32"},{"name":"secret","type":"bytes32","internalType":"bytes32"}],"outputs":[{"name":"randomValue","type":"uint256","internalType":"uint256"}],"stateMutability":"nonpayable"},{"type":"function","name":"rwaAdapter","inputs":[],"outputs":[{"name":"","type":"address","internalType":"address"}],"stateMutability":"view"},{"type":"function","name":"setResolver","inputs":[{"name":"resolver","type":"address","internalType":"address"},{"name":"enabled","type":"bool","internalType":"bool"}],"outputs":[],"stateMutability":"nonpayable"},{"type":"function","name":"startGame","inputs":[{"name":"poolId","type":"uint256","internalType":"uint256"}],"outputs":[],"stateMutability":"nonpayable"},{"type":"function","name":"submitChoice","inputs":[{"name":"poolId","type":"uint256","internalType":"uint256"},{"name":"choice","type":"uint8","internalType":"enum IArenaManager.Choice"}],"outputs":[],"stateMutability":"nonpayable"},{"type":"function","name":"transferOwnership","inputs":[{"name":"newOwner","type":"address","internalType":"address"}],"outputs":[],"stateMutability":"nonpayable"},{"type":"function","name":"usdc","inputs":[],"outputs":[{"name":"","type":"address","internalType":"address"}],"stateMutability":"view"},{"type":"function","name":"withdrawCreatorStake","inputs":[],"outputs":[],"stateMutability":"nonpayable"},{"type":"event","name":"ChoiceSubmitted","inputs":[{"name":"poolId","type":"uint256","indexed":true,"internalType":"uint256"},{"name":"player","type":"address","indexed":true,"internalType":"address"},{"name":"round","type":"uint32","indexed":false,"internalType":"uint32"},{"name":"choice","type":"uint8","indexed":false,"internalType":"enum IArenaManager.Choice"}],"anonymous":false},{"type":"event","name":"Committed","inputs":[{"name":"poolId","type":"uint256","indexed":true,"internalType":"uint256"},{"name":"round","type":"uint32","indexed":true,"internalType":"uint32"},{"name":"commitHash","type":"bytes32","indexed":false,"internalType":"bytes32"}],"anonymous":false},{"type":"event","name":"CreatorStakeDeposited","inputs":[{"name":"creator","type":"address","indexed":true,"internalType":"address"},{"name":"amount","type":"uint256","indexed":false,"internalType":"uint256"},{"name":"totalStake","type":"uint256","indexed":false,"internalType":"uint256"}],"anonymous":false},{"type":"event","name":"CreatorStakeSlashed","inputs":[{"name":"creator","type":"address","indexed":true,"internalType":"address"},{"name":"slashedAmount","type":"uint256","indexed":false,"internalType":"uint256"}],"anonymous":false},{"type":"event","name":"CreatorStakeWithdrawn","inputs":[{"name":"creator","type":"address","indexed":true,"internalType":"address"},{"name":"amount","type":"uint256","indexed":false,"internalType":"uint256"}],"anonymous":false},{"type":"event","name":"GameFinished","inputs":[{"name":"poolId","type":"uint256","indexed":true,"internalType":"uint256"},{"name":"winner","type":"address","indexed":true,"internalType":"address"},{"name":"payout","type":"uint256","indexed":false,"internalType":"uint256"}],"anonymous":false},{"type":"event","name":"GameStarted","inputs":[{"name":"poolId","type":"uint256","indexed":true,"internalType":"uint256"},{"name":"playerCount","type":"uint32","indexed":false,"internalType":"uint32"}],"anonymous":false},{"type":"event","name":"OwnershipTransferStarted","inputs":[{"name":"previousOwner","type":"address","indexed":true,"internalType":"address"},{"name":"newOwner","type":"address","indexed":true,"internalType":"address"}],"anonymous":false},{"type":"event","name":"OwnershipTransferred","inputs":[{"name":"previousOwner","type":"address","indexed":true,"internalType":"address"},{"name":"newOwner","type":"address","indexed":true,"internalType":"address"}],"anonymous":false},{"type":"event","name":"PlayerJoined","inputs":[{"name":"poolId","type":"uint256","indexed":true,"internalType":"uint256"},{"name":"player","type":"address","indexed":true,"internalType":"address"},{"name":"amount","type":"uint256","indexed":false,"internalType":"uint256"}],"anonymous":false},{"type":"event","name":"PoolCancelled","inputs":[{"name":"poolId","type":"uint256","indexed":true,"internalType":"uint256"}],"anonymous":false},{"type":"event","name":"PoolCreated","inputs":[{"name":"poolId","type":"uint256","indexed":true,"internalType":"uint256"},{"name":"host","type":"address","indexed":true,"internalType":"address"},{"name":"entryFee","type":"uint256","indexed":false,"internalType":"uint256"},{"name":"maxPlayers","type":"uint32","indexed":false,"internalType":"uint32"}],"anonymous":false},{"type":"event","name":"RefundClaimed","inputs":[{"name":"poolId","type":"uint256","indexed":true,"internalType":"uint256"},{"name":"player","type":"address","indexed":true,"internalType":"address"},{"name":"amount","type":"uint256","indexed":false,"internalType":"uint256"}],"anonymous":false},{"type":"event","name":"ResolverUpdated","inputs":[{"name":"resolver","type":"address","indexed":true,"internalType":"address"},{"name":"enabled","type":"bool","indexed":false,"internalType":"bool"}],"anonymous":false},{"type":"event","name":"Revealed","inputs":[{"name":"poolId","type":"uint256","indexed":true,"internalType":"uint256"},{"name":"round","type":"uint32","indexed":true,"internalType":"uint32"},{"name":"randomValue","type":"uint256","indexed":false,"internalType":"uint256"}],"anonymous":false},{"type":"event","name":"RoundResolved","inputs":[{"name":"poolId","type":"uint256","indexed":true,"internalType":"uint256"},{"name":"round","type":"uint32","indexed":true,"internalType":"uint32"},{"name":"minorityChoice","type":"uint8","indexed":false,"internalType":"enum IArenaManager.Choice"},{"name":"survivorsRemaining","type":"uint32","indexed":false,"internalType":"uint32"},{"name":"eliminated","type":"uint32","indexed":false,"internalType":"uint32"}],"anonymous":false},{"type":"event","name":"WinningsClaimed","inputs":[{"name":"poolId","type":"uint256","indexed":true,"internalType":"uint256"},{"name":"winner","type":"address","indexed":true,"internalType":"address"},{"name":"amount","type":"uint256","indexed":false,"internalType":"uint256"}],"anonymous":false},{"type":"error","name":"AlreadyCommitted","inputs":[]},{"type":"error","name":"AlreadyJoined","inputs":[{"name":"player","type":"address","internalType":"address"}]},{"type":"error","name":"AlreadyRevealed","inputs":[]},{"type":"error","name":"AlreadySubmitted","inputs":[]},{"type":"error","name":"InsufficientCreatorStake","inputs":[]},{"type":"error","name":"InsufficientPayment","inputs":[{"name":"sent","type":"uint256","internalType":"uint256"},{"name":"required","type":"uint256","internalType":"uint256"}]},{"type":"error","name":"InvalidConfig","inputs":[]},{"type":"error","name":"InvalidPoolStatus","inputs":[{"name":"current","type":"uint8","internalType":"enum IArenaManager.PoolStatus"},{"name":"required","type":"uint8","internalType":"enum IArenaManager.PoolStatus"}]},{"type":"error","name":"InvalidReveal","inputs":[]},{"type":"error","name":"MinPlayersNotMet","inputs":[]},{"type":"error","name":"NotActivePlayer","inputs":[]},{"type":"error","name":"NotCommitted","inputs":[]},{"type":"error","name":"NotResolver","inputs":[]},{"type":"error","name":"NotWinner","inputs":[]},{"type":"error","name":"NothingToClaim","inputs":[]},{"type":"error","name":"OwnableInvalidOwner","inputs":[{"name":"owner","type":"address","internalType":"address"}]},{"type":"error","name":"OwnableUnauthorizedAccount","inputs":[{"name":"account","type":"address","internalType":"address"}]},{"type":"error","name":"PoolFull","inputs":[]},{"type":"error","name":"PoolNotFound","inputs":[{"name":"poolId","type":"uint256","internalType":"uint256"}]},{"type":"error","name":"ReentrancyGuardReentrantCall","inputs":[]},{"type":"error","name":"RoundDeadlineNotPassed","inputs":[]},{"type":"error","name":"RoundDeadlinePassed","inputs":[]},{"type":"error","name":"RoundNotOpen","inputs":[]},{"type":"error","name":"SafeERC20FailedOperation","inputs":[{"name":"token","type":"address","internalType":"address"}]},{"type":"error","name":"StartDeadlinePassed","inputs":[]},{"type":"error","name":"TooEarlyToReveal","inputs":[]},{"type":"error","name":"TransferFailed","inputs":[]}],"bytecode":{"object":"0x60c0346200015a57601f6200270438819003918201601f19168301916001600160401b038311848410176200015e578084926060946040528339810103126200015a57806200005060409262000172565b6200005e6020830162000172565b6001600160a01b03939092849162000077910162000172565b16801562000142578060018060a01b0319948560015416600155815f54968716175f5560405195167f8be0079c531659141344cd1fd0a4f28419497f9722a3daafe3b4186f6b6457e05f80a35f52600360205260405f20600160ff19825416179055600160045560805260a05261257c90816200018882396080518181816103360152818161080e0152818161086e01528181610ded0152818161159a015281816119c601528181611be501526123af015260a051818181610be80152818161105901526123760152f35b604051631e4fbdf760e01b81525f6004820152602490fd5b5f80fd5b634e487b7160e01b5f52604160045260245ffd5b51906001600160a01b03821682036200015a5756fe6080806040526004361015610012575f80fd5b5f3560e01c90816309ff18301461205e575080630aaa4548146120415780631da6ed7c14611fbb578063201f631314611e2e57806332d6a1bf14611e135780633322210c14611ddb57806334e7a19f14611b2b5780633a52915a14611ae95780633ccd10e9146119f55780633e413bee146119b1578063460e2049146118e757806347923af6146116095780635b7baf64146114dc57806364925b47146114c0578063650b872514610e65578063677bd9ff14610d17578063715018a614610cb4578063788965e914610c9757806379ba509714610c175780637f35671c14610bd35780638188375914610bb7578063827c788914610ae4578063868f8d9614610aac5780638ce5185014610a685780638da5cb5b14610a4157806391ab5c31146109365780639ea7d587146108f9578063ab5669ad146108de578063ad243a40146107ad578063b15975171461068e578063c40b16341461051d578063e30c3978146104f5578063e5ed1d59146103d3578063f0b0fd8a1461030c578063f25873cd14610267578063f2fde38b146101fe578063f50ab0de146101df5763f525cb68146101be575f80fd5b346101db575f3660031901126101db576020600554604051908152f35b5f80fd5b346101db575f3660031901126101db57602060405164174876e8008152f35b346101db5760203660031901126101db576102176120cc565b61021f612243565b60018060a01b0380911690816001600160601b0360a01b60015416176001555f54167f38d16b8cac22d99fc7c124b9cd0de2d3fa1faef420bfe791d8c362d765e227005f80a3005b346101db57610275366120fc565b919091335f52600360205260ff60405f205416156102fa57815f52600260205263ffffffff60405f20931692835f5260205260405f2080546102e85781817fccefe1c7df1708a61bf2bdcd32a870be6596e5192e5c061a4a11c18de9d8df9f9360209355600143910155604051908152a3005b6040516317fd8aab60e31b8152600490fd5b604051635d154fe160e11b8152600490fd5b346101db5760203660031901126101db57600435610328612256565b80156103c1576103638130337f00000000000000000000000000000000000000000000000000000000000000006001600160a01b0316612279565b335f52600c60205260405f2061037a82825461221c565b9055335f52600c60205260405f205460405191825260208201527fe93446f642fa815264a48c58b9859f0173db1294c7e909b989a50e711d80fdb060403392a26001600455005b6040516306b7c75960e31b8152600490fd5b346101db5760203660031901126101db57600435801580156104ea575b6104d257805f52600760205260ff60405f20541660058110156104be57806104995750805f52600660205260405f20600760205260405f2060018060a01b0380835416331415908161048b575b5061047957600263ffffffff80925460481c1692015460201c161161046757610465906122c2565b005b60405163d5fa87ab60e01b8152600490fd5b604051636b63596b60e01b8152600490fd5b90505f54163314158461043d565b60405162cded6b60e31b81526044916104b69060048301906120ef565b5f6024820152fd5b634e487b7160e01b5f52602160045260245ffd5b602490604051906302ad881560e41b82526004820152fd5b5060055481116103f0565b346101db575f3660031901126101db576001546040516001600160a01b039091168152602090f35b346101db5761052b366120fc565b9190335f526020926003845260ff60405f205416156102fa57825f526002845260405f209163ffffffff811692835f52855260405f20805490811561067c57600281019182549160ff831661066a576001015443111561065857604051938885019086825288604087015263ffffffff60e01b9060e01b1694856060820152604481526105b78161214c565b519020036106465760ff19166001179055435f1981019190821161063257604051918683019384524060408301528460608301526080820152606481526105fd816121a0565b519020917f9685538314b74a6a697daf45fb36fa8c82c5b509d6f3d8373c61a357c4cd9e7784604051858152a3604051908152f35b634e487b7160e01b5f52601160045260245ffd5b604051639ea6d12760e01b8152600490fd5b604051635ef6c0c760e01b8152600490fd5b60405163a89ac15160e01b8152600490fd5b60405163205e472d60e21b8152600490fd5b346101db5760203660031901126101db576004355f60c06040516106b181612184565b8281528260208201528260408201528260608201528260808201528260a08201520152801580156107a2575b6104d2575f52600760205260405f206040516106f881612184565b815460ff81169160058310156104be5760e09360039284835263ffffffff6020840191818160081c1683528160408601818360281c16815281606088019360481c168352816001870154956080890196875260c060028901549860a08b01998a5260018060a01b039b8c910154169901988952610778604051809c6120ef565b511660208a015251166040880152511660608601525160808501525160a0840152511660c0820152f35b5060055481116106dd565b346101db575f3660031901126101db576107c5612256565b335f52600c60205260405f205480156108cc57335f52600c6020525f6040812055600d60205260405f205415155f14610867575f546108339082906001600160a01b03908116907f0000000000000000000000000000000000000000000000000000000000000000166124b0565b6040519081527fc79627d5e319d4d58f5c8b68be84b8854fdaccd2019eb7693f68871d0ec5e2ff60203392a25b6001600455005b61089b81337f00000000000000000000000000000000000000000000000000000000000000006001600160a01b03166124b0565b6040519081527f39aa0f1e5b028dccffe643095ee3660fcea98c7d32a519cb270110441d853fcf60203392a2610860565b6040516312d37ee560e31b8152600490fd5b346101db575f3660031901126101db576020604051603c8152f35b346101db5760203660031901126101db576001600160a01b0361091a6120cc565b165f526003602052602060ff60405f2054166040519015158152f35b346101db576020806003193601126101db57600435905f60a060405161095b81612168565b8281528284820152826040820152826060820152826080820152015281158015610a36575b610a1d5760c0915f526006815260405f2060405161099d81612168565b60018060a01b0382541692838252600260018401549382840194855201549163ffffffff80948180946040850190828816825260608601938389831c1685528360a06080890198828c60401c168a52019960601c1689526040519a8b5251908a0152511660408801525116606086015251166080840152511660a0820152f35b6040516302ad881560e41b815260048101839052602490fd5b506005548211610980565b346101db575f3660031901126101db575f546040516001600160a01b039091168152602090f35b346101db5760403660031901126101db57610a816120b9565b6004355f52600260205263ffffffff60405f2091165f52602052602060405f20541515604051908152f35b346101db5760203660031901126101db576001600160a01b03610acd6120cc565b165f52600c602052602060405f2054604051908152f35b346101db5760203660031901126101db57600435610b00612256565b80158015610bac575b6104d257805f52600660205260405f20600760205260405f209060018060a01b03918282541633141580610b9f575b61047957805460ff811660058110156104be5780610499575060049060ff191617905554165f52600d60205260405f20610b728154612237565b90557f3d229dd60fc64b0903758feed58453f62e715f5d01dc0978c0a3a312dd2776c25f80a26001600455005b50825f5416331415610b38565b506005548111610b09565b346101db575f3660031901126101db576020604051610bb88152f35b346101db575f3660031901126101db576040517f00000000000000000000000000000000000000000000000000000000000000006001600160a01b03168152602090f35b346101db575f3660031901126101db576001546001600160a01b033381831603610c7f576001600160601b0360a01b8092166001555f549133908316175f553391167f8be0079c531659141344cd1fd0a4f28419497f9722a3daafe3b4186f6b6457e05f80a3005b60405163118cdaa760e01b8152336004820152602490fd5b346101db575f3660031901126101db576020604051623d09008152f35b346101db575f3660031901126101db57610ccc612243565b600180546001600160a01b03199081169091555f80549182168155906001600160a01b03167f8be0079c531659141344cd1fd0a4f28419497f9722a3daafe3b4186f6b6457e08280a3005b346101db576020806003193601126101db57600435610d34612256565b80158015610e5a575b6104d257805f526007825260ff60405f20541660058110156104be5760038103610e345750805f526007825260405f206008835260405f20335f52835260405f2060018060a01b0391826003339201541603610e2257805460ff8160081c166108cc5761ff0019166101001790555f828152600b84526040812080549190559283156108cc57610e12847f5380cf6fe903b40c6d5a9e0dfbca2f3a423f0a21520b4d5947ed5169bdba946d9333907f0000000000000000000000000000000000000000000000000000000000000000166124b0565b6040519384523393a36001600455005b6040516330c6392160e11b8152600490fd5b60405162cded6b60e31b8152604491610e519060048301906120ef565b60036024820152fd5b506005548111610d3d565b346101db5760203660031901126101db57610e7e612256565b6004351580156114b3575b61149a576004355f52600760205260ff60405f20541660058110156104be5760018103611474576004355f52600760205260405f20600660205260405f20600282015442111561146257600260ff19835416178083556004355f52600960205260405f205f8082545f5b8181106113b5575063ffffffff805f941692169082820361139b575b5f945f5b82811061126d57505050865463ffffffff808616818360281c16031161063257875468ffffffff0000000000191663ffffffff868116602893841c9091160390911b68ffffffff00000000001617875503611264575060015f915b85549263ffffffff808560281c1692610f8a60405180946120e2565b83602084015216604082015263ffffffff8560081c16907feee80473b15573e4b4ef6172b8cc0df453ce08203653d63b87722119d0909d46606060043592a31161120257505050506004355f52600760205260405f20600660205260405f20600390600360ff1984541617835560018060a01b03809154165f52600d60205260405f206110178154612237565b90556004355f52600960205260405f205f928154915f5b8381106111a8575b50505050600381929301921691826001600160601b0360a01b8254161790555f907f0000000000000000000000000000000000000000000000000000000000000000166040516311b3e72960e11b81526004356004820152602081602481855afa90811561116b575f91611176575b506110fc575b50816110e7575b6040519081527ff5d92df6ae1a0b46d0a0c57c2e1da0d75d7591d2804ad086cb1e27ba67de7aaf602060043592a36001600455005b6004355f52600b6020528060405f20556110b2565b5f9150602090604460405180948193627b8a6760e11b835260043560048401523060248401525af190811561116b575f91611139575b50826110ab565b90506020813d602011611163575b81611154602093836121bc565b810103126101db575182611132565b3d9150611147565b6040513d5f823e3d90fd5b90506020813d6020116111a0575b81611191602093836121bc565b810103126101db5751846110a5565b3d9150611184565b6004355f52600860205260405f20856111c183856121de565b905490861b1c165f5260205260ff60405f2054166111e15760010161102e565b849550600393506111f4908593926121de565b9054911b1c16928580611036565b6001918263ffffffff9260ff191617855560081c160163ffffffff81116106325763ffffffff6002809361125061125c94879064ffffffff0082549160081b169064ffffffff001916179055565b015460401c164261221c565b910155610860565b60019091610f6e565b61127781836121de565b90546003906004355f52600860205260405f2060018060a01b038285851b1c165f5260205260ff60405f20541615611390578787036112be575b5050506001905b01610f13565b6004355f52600a60205260405f2063ffffffff8c60081c165f5260205260405f2060018060a01b038285851b1c165f5260205260ff60405f205416828a10156104be57828110156104be57898114908115611377575b506112b1576004355f9081526008602081815260408084209690951b9390931c6001600160a01b031682529390915220805465ffffffff00ff1916918a901b65ffffffff0000169190911790559560019061136e90612207565b96908b806112b1565b90501580611386575b8e611314565b5060018914611380565b5050506001906112b8565b9250818110156113ae5760015b92610f0f565b60026113a8565b926113c084866121de565b90549060039160018060a01b0391831b1c166004355f52600860205260405f20815f5260205260ff60405f20541615611457576004355f52600a60205260405f2063ffffffff8960081c165f5260205260405f20905f5260205260ff60405f205416908110156104be576002036114445761143c600191612207565b935b01610ef3565b9291611451600191612207565b9261143e565b50509260019061143e565b60405163100f4fa960e11b8152600490fd5b60405162cded6b60e31b81526044916114919060048301906120ef565b60016024820152fd5b60246040516302ad881560e41b81526004356004820152fd5b5060055460043511610e89565b346101db575f3660031901126101db5760206040516103e88152f35b346101db576020806003193601126101db576004356114f9612256565b801580156115fe575b6104d257805f526007825260405f206006835260405f206008845260405f20335f52845260ff60405f2092541660058110156104be57600481036115d8575081549060ff8260081c166108cc5760ff821615806115c7575b6108cc5761ff00199091166101001790915560010154917ff3f402280ef0a7905e124aa621b65eaeb2725c343e8b36d398ed78c29daf285c90610e1284337f00000000000000000000000000000000000000000000000000000000000000006001600160a01b03166124b0565b5063ffffffff8260101c161561155a565b60405162cded6b60e31b81526044916115f59060048301906120ef565b60046024820152fd5b506005548111611502565b346101db5760a03660031901126101db576004356116256120b9565b906044359063ffffffff918281168091036101db576064358381168091036101db576084358481168091036101db5761165c612256565b335f52602095600c8752623d090060405f2054106118d557610bb8851080156118c7575b6103c1578516926002841080156118bc575b6103c1576002811080156118b3575b6103c157603c831080156118a7575b6103c157428211156103c1576116c7600554612229565b95869384600555335f52600d895260405f206116e38154612229565b9055604051926116f284612168565b338452898401948886526040850192888452606086019283526080860190815260a08601918252875f5260068c528b6bffffffff000000000000000067ffffffff0000000087600260405f2060018060a01b03809c51169c6001600160601b0360a01b9d8e835416178255516001820155019751169287549651901b16925160401b169263ffffffff60601b905160601b16936fffffffffffffffffffffffffffffffff19161717171790556040516117aa81612184565b5f815288808201925f8452604083015f815260608401915f835260808501925f8452600760a08701955f875260c088019b5f8d525f525260405f2095519660058810156104be57865490519351915163ffffffff60481b90841660481b166cffffffffffffffffffffffffff1990911660ff989098169790971764ffffffff0093831660081b9390931692909217911660281b68ffffffff00000000001617939093178255600392516001830155516002820155019251169082541617905560405191825283820152817f180a4416c519fc6105844c395e463306d809327872a761fa891facef527016e460403393a36001600455604051908152f35b5062093a8083116116b0565b508381116116a1565b506103e88411611692565b5064174876e8008511611680565b604051631b1cdf7560e11b8152600490fd5b346101db576020806003193601126101db57600435801580156119a6575b6104d2575f526009815260405f20604051908183825491828152019081925f52845f20905f5b86828210611989578686611941828803836121bc565b60405192839281840190828552518091526040840192915f5b82811061196957505050500390f35b83516001600160a01b03168552869550938101939281019260010161195a565b83546001600160a01b03168552909301926001928301920161192b565b506005548111611905565b346101db575f3660031901126101db576040517f00000000000000000000000000000000000000000000000000000000000000006001600160a01b03168152602090f35b346101db5760403660031901126101db576024356001600160a01b03811690600435908290036101db575f6060604051611a2e8161214c565b828152826020820152826040820152015280158015611ade575b6104d2575f52600860205260405f20905f5260205260405f2060405190611a6e8261214c565b549060ff821615158152602081019160ff8160081c161515835263ffffffff9060ff6040840191838160101c16835260301c1691606084019160038410156104be57608095611adc9484526040519551151586525115156020860152511660408401525160608301906120e2565bf35b506005548111611a48565b346101db5760203660031901126101db5760043580158015611b20575b6104d2575f52600b602052602060405f2054604051908152f35b506005548111611b06565b346101db576020806003193601126101db5760043590611b49612256565b81158015611dd0575b610a1d57815f526007815260ff60405f20541660058110156104be57806104995750815f526006815260405f20906007815260405f2091600281019283549263ffffffff93848160601c16421015611dbe578480845492169160481c161015611dac57855f526008815260405f20335f52815260ff60405f205416611d94576001808060a01b039301611c0a81543033877f000000000000000000000000000000000000000000000000000000000000000016612279565b604051611c168161214c565b600181528281015f8152611c8d87604084015f815260608501935f85528c5f526008885260405f20335f528852611c6060405f2096511515879060ff801983541691151516179055565b518554915165ffffffffff001990921690151560081b61ff001617911660101b65ffffffff000016178355565b5160038110156104be57611ca091612123565b865f526009825260405f209081549068010000000000000000821015611d80578695611cf4838b9560017f03dfbe1fcb4e2d61f3b4a0c93d8f814c92250618b3387f396cc9fc9fafe2c203960181556121de565b819291549060031b9133831b921b1916179055611d3f611d1987875460481c16612207565b86546cffffffff000000000000000000191660489190911b63ffffffff60481b16178655565b8054611d506001870191825461221c565b905554926040519384523393a35460481c1691541614611d71576001600455005b611d7a906122c2565b80610860565b634e487b7160e01b5f52604160045260245ffd5b604051637ca7fcf160e11b8152336004820152602490fd5b6040516327a01e0760e21b8152600490fd5b604051630270785560e31b8152600490fd5b506005548211611b52565b346101db5760203660031901126101db576001600160a01b03611dfc6120cc565b165f52600d602052602060405f2054604051908152f35b346101db575f3660031901126101db57602060405160028152f35b346101db5760403660031901126101db5760243560043560038210156101db5780158015611fb0575b6104d257805f526020916007835260ff60405f20541660058110156104be57600181036114745750815f526007835260405f20906008845260405f20335f52845260ff60405f205416156104795760028201544211611f9e57825f52600a845260405f209163ffffffff9081815460081c1693845f52865260405f20335f52865260ff60405f20541660038110156104be57611f8c578215611f7a57611f5293855f52600a875260405f20905f52865260405f20335f52865260405f2060ff1981541660ff8516179055845f526008865260405f20335f528652611f3e8360405f20612123565b5460081c16936040519485528401906120e2565b7feb890125545524738376f1153ee1304fe3efd0b01ab1d4dd079c3e7bdf7f55f860403393a3005b60405163402bc00760e01b8152600490fd5b604051639fbfc58960e01b8152600490fd5b60405163647df6ab60e11b8152600490fd5b506005548111611e57565b346101db5760403660031901126101db57611fd46120cc565b60243590811515908183036101db577fd8ea402e95478feee1bea3f652c970c98c456281ae29a9987918e9e8b6754bb491612038602092612013612243565b60018060a01b031694855f526003845260405f209060ff801983541691151516179055565b604051908152a2005b346101db575f3660031901126101db57602060405162093a808152f35b346101db5760403660031901126101db5760609061207a6120b9565b6004355f52600260205263ffffffff60405f2091165f5260205260405f2080549060ff6002600183015492015416918352602083015215156040820152f35b6024359063ffffffff821682036101db57565b600435906001600160a01b03821682036101db57565b9060038210156104be5752565b9060058210156104be5752565b60609060031901126101db576004359060243563ffffffff811681036101db579060443590565b9060038110156104be5766ff00000000000082549160301b169066ff0000000000001916179055565b6080810190811067ffffffffffffffff821117611d8057604052565b60c0810190811067ffffffffffffffff821117611d8057604052565b60e0810190811067ffffffffffffffff821117611d8057604052565b60a0810190811067ffffffffffffffff821117611d8057604052565b90601f8019910116810190811067ffffffffffffffff821117611d8057604052565b80548210156121f3575f5260205f2001905f90565b634e487b7160e01b5f52603260045260245ffd5b63ffffffff8091169081146106325760010190565b9190820180921161063257565b5f1981146106325760010190565b8015610632575f190190565b5f546001600160a01b03163303610c7f57565b600260045414612267576002600455565b604051633ee5aeb560e01b8152600490fd5b6040516323b872dd60e01b60208201526001600160a01b0392831660248201529290911660448301526064808301939093529181526122c0916122bb826121a0565b6124ec565b565b5f8181526007602090815260408083206006835292819020835468ffffffffffffffffff19811664ffffffffff1991909116610101908117851c68ffffffff0000000000169190911717845563ffffffff9061232790829060020154841c164261221c565b600285015560018401549384612368575b7f22dbd5d65a0557706e7f04667f0f7088b92d6e78cea87f82776b152e1325683e94505460481c169051908152a2565b825163095ea7b360e01b81527f00000000000000000000000000000000000000000000000000000000000000006001600160a01b03818116600484015260248301889052917f000000000000000000000000000000000000000000000000000000000000000083169087816044815f865af180156124a6578991849161246d575b506123f3926124b0565b1694853b156101db575f956044879286519889938492631c57762b60e31b84528c600485015260248401525af1801561246357156123385767ffffffffffffffff8511611d80577f22dbd5d65a0557706e7f04667f0f7088b92d6e78cea87f82776b152e1325683e948352612338565b83513d5f823e3d90fd5b809250898092503d831161249f575b61248681836121bc565b810103126101db5751801515036101db5787825f6123e9565b503d61247c565b87513d5f823e3d90fd5b60405163a9059cbb60e01b60208201526001600160a01b039290921660248301526044808301939093529181526122c0916122bb6064836121bc565b905f602091828151910182855af11561116b575f513d61253d57506001600160a01b0381163b155b61251b5750565b604051635274afe760e01b81526001600160a01b039091166004820152602490fd5b6001141561251456fea2646970667358221220e499d36dd2add8e69ecd746390b7596682cecc7b94e7414d22a4fbbb723e658664736f6c63430008180033","linkReferences":{}},"methodIdentifiers":{"MAX_ENTRY_FEE()":"f50ab0de","MAX_PLAYERS_CAP()":"64925b47","MAX_ROUND_DURATION()":"0aaa4548","MIN_CREATOR_STAKE()":"788965e9","MIN_ENTRY_FEE()":"81883759","MIN_PLAYERS_MIN()":"32d6a1bf","MIN_ROUND_DURATION()":"ab5669ad","acceptOwnership()":"79ba5097","cancelPool(uint256)":"827c7889","claimRefund(uint256)":"5b7baf64","claimWinnings(uint256)":"677bd9ff","commit(uint256,uint32,bytes32)":"f25873cd","createPool(uint256,uint32,uint32,uint32,uint32)":"47923af6","creatorActivePools(address)":"3322210c","creatorStake(address)":"868f8d96","depositCreatorStake(uint256)":"f0b0fd8a","getCommitment(uint256,uint32)":"09ff1830","getPlayerInfo(uint256,address)":"3ccd10e9","getPlayers(uint256)":"460e2049","getPoolConfig(uint256)":"91ab5c31","getPoolState(uint256)":"b1597517","isCommitted(uint256,uint32)":"8ce51850","isResolver(address)":"9ea7d587","joinPool(uint256)":"34e7a19f","owner()":"8da5cb5b","pendingOwner()":"e30c3978","pendingPayout(uint256)":"3a52915a","poolCount()":"f525cb68","renounceOwnership()":"715018a6","resolveRound(uint256)":"650b8725","reveal(uint256,uint32,bytes32)":"c40b1634","rwaAdapter()":"7f35671c","setResolver(address,bool)":"1da6ed7c","startGame(uint256)":"e5ed1d59","submitChoice(uint256,uint8)":"201f6313","transferOwnership(address)":"f2fde38b","usdc()":"3e413bee","withdrawCreatorStake()":"ad243a40"},"id":30}