{"abi":[{"type":"constructor","inputs":[{"name":"_usdc","type":"address","internalType":"address"},{"name":"_vault","type":"address","internalType":"address"},{"name":"_initialOwner","type":"address","internalType":"address"}],"stateMutability":"nonpayable"},{"type":"function","name":"acceptOwnership","inputs":[],"outputs":[],"stateMutability":"nonpayable"},{"type":"function","name":"arenaManager","inputs":[],"outputs":[{"name":"","type":"address","internalType":"address"}],"stateMutability":"view"},{"type":"function","name":"currentValue","inputs":[{"name":"poolId","type":"uint256","internalType":"uint256"}],"outputs":[{"name":"","type":"uint256","internalType":"uint256"}],"stateMutability":"view"},{"type":"function","name":"deposit","inputs":[{"name":"poolId","type":"uint256","internalType":"uint256"},{"name":"amount","type":"uint256","internalType":"uint256"}],"outputs":[],"stateMutability":"nonpayable"},{"type":"function","name":"owner","inputs":[],"outputs":[{"name":"","type":"address","internalType":"address"}],"stateMutability":"view"},{"type":"function","name":"pendingOwner","inputs":[],"outputs":[{"name":"","type":"address","internalType":"address"}],"stateMutability":"view"},{"type":"function","name":"renounceOwnership","inputs":[],"outputs":[],"stateMutability":"nonpayable"},{"type":"function","name":"setArenaManager","inputs":[{"name":"_arenaManager","type":"address","internalType":"address"}],"outputs":[],"stateMutability":"nonpayable"},{"type":"function","name":"transferOwnership","inputs":[{"name":"newOwner","type":"address","internalType":"address"}],"outputs":[],"stateMutability":"nonpayable"},{"type":"function","name":"usdc","inputs":[],"outputs":[{"name":"","type":"address","internalType":"address"}],"stateMutability":"view"},{"type":"function","name":"vault","inputs":[],"outputs":[{"name":"","type":"address","internalType":"address"}],"stateMutability":"view"},{"type":"function","name":"withdraw","inputs":[{"name":"poolId","type":"uint256","internalType":"uint256"},{"name":"recipient","type":"address","internalType":"address"}],"outputs":[{"name":"usdcReturned","type":"uint256","internalType":"uint256"}],"stateMutability":"nonpayable"},{"type":"function","name":"yieldAccrued","inputs":[{"name":"poolId","type":"uint256","internalType":"uint256"}],"outputs":[{"name":"","type":"uint256","internalType":"uint256"}],"stateMutability":"view"},{"type":"event","name":"Deposited","inputs":[{"name":"poolId","type":"uint256","indexed":true,"internalType":"uint256"},{"name":"usdcAmount","type":"uint256","indexed":false,"internalType":"uint256"},{"name":"sharesReceived","type":"uint256","indexed":false,"internalType":"uint256"}],"anonymous":false},{"type":"event","name":"OwnershipTransferStarted","inputs":[{"name":"previousOwner","type":"address","indexed":true,"internalType":"address"},{"name":"newOwner","type":"address","indexed":true,"internalType":"address"}],"anonymous":false},{"type":"event","name":"OwnershipTransferred","inputs":[{"name":"previousOwner","type":"address","indexed":true,"internalType":"address"},{"name":"newOwner","type":"address","indexed":true,"internalType":"address"}],"anonymous":false},{"type":"event","name":"Withdrawn","inputs":[{"name":"poolId","type":"uint256","indexed":true,"internalType":"uint256"},{"name":"usdcReturned","type":"uint256","indexed":false,"internalType":"uint256"},{"name":"sharesRedeemed","type":"uint256","indexed":false,"internalType":"uint256"}],"anonymous":false},{"type":"error","name":"OnlyArenaManager","inputs":[]},{"type":"error","name":"OwnableInvalidOwner","inputs":[{"name":"owner","type":"address","internalType":"address"}]},{"type":"error","name":"OwnableUnauthorizedAccount","inputs":[{"name":"account","type":"address","internalType":"address"}]},{"type":"error","name":"PoolAlreadyDeposited","inputs":[{"name":"poolId","type":"uint256","internalType":"uint256"}]},{"type":"error","name":"PoolNotDeposited","inputs":[{"name":"poolId","type":"uint256","internalType":"uint256"}]},{"type":"error","name":"ReentrancyGuardReentrantCall","inputs":[]},{"type":"error","name":"SafeERC20FailedOperation","inputs":[{"name":"token","type":"address","internalType":"address"}]},{"type":"error","name":"ZeroAmount","inputs":[]}],"bytecode":{"object":"0x60c03461012157601f610bf538819003918201601f19168301916001600160401b0383118484101761012557808492606094604052833981010312610121578061004a604092610139565b61005660208301610139565b6001600160a01b03939092849161006d9101610139565b1680156101095760018060a01b0319938460015416600155815f54958616175f5560405194167f8be0079c531659141344cd1fd0a4f28419497f9722a3daafe3b4186f6b6457e05f80a3600160025560805260a052610aa7908161014e8239608051818181610292015281816105a201526106b7015260a05181818160c1015281816101e30152818161065d015281816108a401526109640152f35b604051631e4fbdf760e01b81525f6004820152602490fd5b5f80fd5b634e487b7160e01b5f52604160045260245ffd5b51906001600160a01b03821682036101215756fe6080604090808252600480361015610015575f80fd5b5f3560e01c918262f714ce146105ef575081632367ce52146105d15781633e413bee1461058e578163715018a61461052b57816379ba5097146104a257816389c173e51461045f5781638da5cb5b14610438578163cc00a86514610413578163d641afd5146103eb578163e2bbb1581461018a57508063e30c397814610162578063f2fde38b146100f45763fbfa77cf146100ae575f80fd5b346100f0575f3660031901126100f057517f00000000000000000000000000000000000000000000000000000000000000006001600160a01b03168152602090f35b5f80fd5b346100f05760203660031901126100f05761010d610844565b610115610a46565b60018060a01b0380911690816bffffffffffffffffffffffff60a01b60015416176001555f54167f38d16b8cac22d99fc7c124b9cd0de2d3fa1faef420bfe791d8c362d765e227005f80a3005b50346100f0575f3660031901126100f05760015490516001600160a01b039091168152602090f35b9050346100f057816003193601126100f05780359160243560018060a01b0392836003541633036103dd576101bd610a25565b81156103cf57845f5260209060058252835f20546103b557855f526005825282845f20557f0000000000000000000000000000000000000000000000000000000000000000948086169586155f1461025a5750507f1ca606821992e3b34613b5b29c0bbade3a907b2969d7f9f2927f726fa4baccfb9450855f5280825282845f20555b855f528152825f2054908351928352820152a26001600255005b855163095ea7b360e01b81526001600160a01b03909116838201908152602081018690529091849183919082905f90829060400103927f0000000000000000000000000000000000000000000000000000000000000000165af180156103ab57610378575b50815f956044865180988193636e553f6560e01b835288878401523060248401525af1801561036e575f90610321575b7f1ca606821992e3b34613b5b29c0bbade3a907b2969d7f9f2927f726fa4baccfb9550865f52818352845f2055610240565b508185813d8311610367575b610337818361085a565b810103126100f0577f1ca606821992e3b34613b5b29c0bbade3a907b2969d7f9f2927f726fa4baccfb94516102ef565b503d61032d565b84513d5f823e3d90fd5b8281813d83116103a4575b61038d818361085a565b810103126100f05751801515036100f0575f6102bf565b503d610383565b85513d5f823e3d90fd5b835160016208d79760e01b03198152908101869052602490fd5b8251631f2a200560e01b8152fd5b82516307c85c0360e21b8152fd5b82346100f0575f3660031901126100f05760035490516001600160a01b039091168152602090f35b82346100f05760203660031901126100f05761043160209235610945565b9051908152f35b82346100f0575f3660031901126100f0575f5490516001600160a01b039091168152602090f35b346100f05760203660031901126100f057610478610844565b610480610a46565b600380546001600160a01b0319166001600160a01b0392909216919091179055005b82346100f0575f3660031901126100f057600154916001600160a01b039133838516036105145750506bffffffffffffffffffffffff60a01b8092166001555f549133908316175f553391167f8be0079c531659141344cd1fd0a4f28419497f9722a3daafe3b4186f6b6457e05f80a3005b60249250519063118cdaa760e01b82523390820152fd5b346100f0575f3660031901126100f057610543610a46565b600180546001600160a01b03199081169091555f80549182168155906001600160a01b03167f8be0079c531659141344cd1fd0a4f28419497f9722a3daafe3b4186f6b6457e08280a3005b82346100f0575f3660031901126100f057517f00000000000000000000000000000000000000000000000000000000000000006001600160a01b03168152602090f35b82346100f05760203660031901126100f05761043160209235610890565b9083346100f057806003193601126100f057602435926001600160a01b039280359184861691908287036100f057856003541633036108385750610631610a25565b825f52602095818752845f205492831561082157845f528288525f86812055600588525f8681205587877f00000000000000000000000000000000000000000000000000000000000000001680155f146107615750865163a9059cbb60e01b8282019081526001600160a01b0394909416602482015260448082018790528152949788957f0000000000000000000000000000000000000000000000000000000000000000909116939192505f91906106eb60648261085a565b519082855af11561036e575f513d6107585750803b155b610742575050827fabd2ab552bc04cdbfa4a54107fa44ac8c9cb06f6d21da11933ac05a653be19e9915b81519086825287820152a2600160025551908152f35b8451635274afe760e01b81529182015260249150fd5b60011415610702565b8598506064929593505f9088959295519687958694635d043b2960e11b865285015260248401523060448401525af180156108175783905f906107c8575b7fabd2ab552bc04cdbfa4a54107fa44ac8c9cb06f6d21da11933ac05a653be19e992509461072c565b50508481813d8311610810575b6107df818361085a565b810103126100f057827fabd2ab552bc04cdbfa4a54107fa44ac8c9cb06f6d21da11933ac05a653be19e9915161079f565b503d6107d5565b83513d5f823e3d90fd5b8551631a265ad560e01b8152808401869052602490fd5b6307c85c0360e21b8152fd5b600435906001600160a01b03821682036100f057565b90601f8019910116810190811067ffffffffffffffff82111761087c57604052565b634e487b7160e01b5f52604160045260245ffd5b5f52600460205260405f20548015610940577f00000000000000000000000000000000000000000000000000000000000000006001600160a01b031690811561093b576020906024604051809481936303d1689d60e11b835260048301525afa908115610930575f91610901575090565b90506020813d602011610928575b8161091c6020938361085a565b810103126100f0575190565b3d915061090f565b6040513d5f823e3d90fd5b905090565b505f90565b5f5260206004815260405f205480156109e7576005825260405f2054907f00000000000000000000000000000000000000000000000000000000000000006001600160a01b0316908115610a1d5783906024604051809481936303d1689d60e11b835260048301525afa928315610930575f936109ed575b5050808211156109e75781039081116109d35790565b634e487b7160e01b5f52601160045260245ffd5b50505f90565b9080929350813d8311610a16575b610a05818361085a565b810103126100f05751905f806109bd565b503d6109fb565b505050505f90565b6002805414610a345760028055565b604051633ee5aeb560e01b8152600490fd5b5f546001600160a01b03163303610a5957565b60405163118cdaa760e01b8152336004820152602490fdfea2646970667358221220ab344b1a4f6b99f166a7c2cf354da8499965a1e51c25c073a087e57ba66b0e4a64736f6c63430008180033","linkReferences":{}},"methodIdentifiers":{"acceptOwnership()":"79ba5097","arenaManager()":"d641afd5","currentValue(uint256)":"2367ce52","deposit(uint256,uint256)":"e2bbb158","owner()":"8da5cb5b","pendingOwner()":"e30c3978","renounceOwnership()":"715018a6","setArenaManager(address)":"89c173e5","transferOwnership(address)":"f2fde38b","usdc()":"3e413bee","vault()":"fbfa77cf","withdraw(uint256,address)":"00f714ce","yieldAccrued(uint256)":"cc00a865"},"id":37}